:020000040000fa
:10000000f0ff03208102000001050000010500004f
:1000100001050000010500000105000000000000ce
:1000200000000000000000000000000001050000ca
:1000300001050000000000000105000001050000ae
:100040000105000001050000010500000105000098
:100050000105000001050000010500000105000088
:100060000105000001050000010500000105000078
:100070000105000001050000010500000105000068
:100080000105000001050000010500000105000058
:100090000105000001050000010500000105000048
:1000a0000105000001050000010500000105000038
:1000b0000105000001050000010500000105000028
:1000c0000105000001050000010500000105000018
:1000d0000105000001050000010500000105000008
:1000e0000105000001050000000000000000000004
:1000f00000000000010500000105000001050000ee
:1001000001050000010500000105000001050000d7
:1001100001050000010500000105000001050000c7
:1001200001050000010500000105000001050000b7
:1001300001050000010500000105000001050000a7
:100140000105000001050000010500000105000097
:100150000105000001050000000000000000000093
:10016000000000000000000000000000000000008f
:100170000000000000000000010500000105000073
:100180000105000001050000010500000105000057
:10019000000000000105000001050000010500004d
:1001a0000105000001050000010500000105000037
:1001b0000105000001050000010500000105000027
:1001c0000105000001050000010500000105000017
:1001d0000105000001050000010500000105000007
:1001e00001050000010500000105000001050000f7
:1001f00001050000010500000105000001050000e7
:1002000001050000000000000000000001050000e2
:1002100001050000010500000105000001050000c6
:1002200001050000010500000105000001050000b6
:1002300001050000010500000105000001050000a6
:100240000105000001050000010500000105000096
:100250000105000001050000010500000105000086
:020000040000fa
:10026000f8b500bff8bc08bc9e467047bd0400004e
:10027000f8b500bff8bc08bc9e4670479904000062
:020000040000fa
:100280001b4b03b198471b4b03b19847eff3108307
:10029000b3fa83f35b09019372b6bff35f8f164b1a
:1002a00000221a700199154a136843f47003136011
:1002b000bff34f8fbff36f8f29b10f4b01221a701d
:1002c000bff35f8f62b600f007f900f023f80c4b24
:1002d00023f07f030b4a93600b4b98470b4b03b102
:1002e00098470b4b03b1984700f058f8fee700bf62
:1002f00000000000000000002800002088ed00e061
:100300000000000000ed00e05104000000000000cb
:0403100000000000e9
:020000040000fa
:100314001e4b1f4a9342f0b438bf002103d203f8a6
:10032400011b9342fbd11b4ad2e9000150ea0103ad
:100334004ff0000610d09468034602f10c076cb924
:1003440021b1014403f8016b9942fbd13a46d2e949
:10035400000150ea0103eed1f0bc704759b101f13c
:100364000c030c38801a1a443b461c1813f8015b22
:1003740025709342f9d111f0030318bf012303eb55
:10038400910107eb81073a46e1e700bf0000002036
:0803940000000020000400003d
:020000040000fa
:10039c0080b586b000af786039600c23fb600f230a
:1003ac00bb6000237b61b968f86800f011f87861d4
:1003bc007b695b007b6100233b6105e07b6901335a
:1003cc007b613b6901333b613b69092bf6ddefe750
:1003dc0080b485b000af786039600023fb607a6828
:1003ec003b681344fb60fb6818461437bd465df848
:0403fc00047b7047c7
:020000040000fa
:100400001c000020040000000100000000000000ab
:10041000000000201c000000000000002800002058
:100420000100000000000000200000200400000087
:100430000000000024000020040000000100000073
:100440000000000000000000000000002222222224
:020000040000fa
:1004500070b50d4d0d4c641ba4100026a64209d1a9
:100460000b4d0c4cfff7fcfe641ba4100026a642ab
:1004700005d170bd55f8043b98470136eee755f8b5
:10048000043b98470136f2e76c0200006c02000062
:080490006c0200007002000084
:020000040000fa
:1004980010b5054c237833b9044b13b10448aff3b6
:1004a80000800123237010bd000000200000000020
:1004b8000000000008b5034b1bb103490348aff324
:1004c800008008bd000000000400002000000000bb
:1004d800084b9a6822f001029a60db6813f0010f5a
:1004e80006d1044b20225a609a6842f001029a60b1
:0804f800704700bf00600041e5
:020000040000fa
:02050000fee714
:00000001FF
